:100000000C9447010C9478010C9478010C947801BD
:100010000C9478010C9478010C9478010C9478017C
:100020000C9478010C9478010C9478010C9478016C
:100030000C9478010C9478010C9478010C9478015C
:100040000C9478010C9436080C9478010C94780187
:100050000C9478010C9478010C9478010C94640849
:100060000C9478010C94D8080C94AE080C94780188
:100070000C9478010C9478010C9478010C9478011C
:100080000C9408080C9478010C9478010C94780175
:100090000C9478010C9478010C9478010C947801FC
:1000A0000C9478010C9478010C94DA070C94780184
:1000B0000C9478010C9478010C9478010C94AC07A2
:1000C0000C9478010C9478010C9478010C947801CC
:1000D0000C9478010C9478010C9478010C947801BC
:1000E0000C94780123022602150219021F025D02F8
:1000F0002A022E02340238023C02420246024A021E
:100100005D025002540258020C946C040C942602B6
:100110000C942A020C942E020C9419020C941502D1
:100120000C945D020C9423020C9454020C9404046D
:100130000C9434020C9450020C9458020C94270432
:100140000C943C020C9438020C9413040C94D503C8
:100150000C944A020C94C50D0C9435040C94420284
:100160000C9446020C941F020C94B304000020006F
:100170002300260029002C002F003200000100007F
:1001800003010601090100002100240027002A00C4
:100190002D003000330001010000040107010A01B5
:1001A00000002200250028002B002E003100340022
:1001B00002010000050108010B0105050505070501
:1001C00008080808020202020A0A080804040404D3
:1001D00001010101010101010303030303030303FF
:1001E000040707070C0C0C0C0C0C0C0C020202028E
:1001F00006060606060606060B0B0B0B0B0B0B0B77
:100200000102102020080810204010204080020128
:10021000020108040201010204081020408080400D
:10022000201008040201800402018040201008040C
:1002300002010804020101020408102040800102AA
:1002400004081020408000000A0B02090C0D0E0863
:10025000070304010000000000000000000000008F
:10026000000000000000000000000000000000008E
:10027000000012111000000000000000000000004B
:10028000000000000000000000000000C50D112467
:100290001FBECFEFD1E2DEBFCDBF00E00CBF12E04A
:1002A000A0E0B2E0ECEDF2E200E00BBF02C007908C
:1002B0000D92AE32B107D9F723E0AEE2B2E001C051
:1002C0001D92A337B207E1F711E0C7E4D1E000E0E7
:1002D00006C021970109802FFE010E94610EC634DD
:1002E000D10780E00807A9F70E940E090C946C1151
:1002F0000C940000E091D202F091D3020190F081C1
:10030000E02D682F82ED92E01994CF92DF92EF9268
:10031000FF92CF93DF93EC01603282E078070CF01C
:100320003DC077FD06C0653B71052CF064EB70E0C5
:1003300002C060E070E0898128E830E06901C81AF5
:10034000D10887FDD394CC0CDD1CCC0CDD1C0D2C0E
:10035000000CEE08FF088A8128E532E0281B3109ED
:1003600087FD3395220F331F220F331FC901330F2F
:10037000AA0BBB0B9C01AD012C193D094E095F096D
:10038000DB010E941C0E24EB30E040E050E00E94B4
:10039000F20DC20ED31EE41EF51EB6018881803315
:1003A00080F5998148E850E0491B510997FD539524
:1003B000440F551F440F551F6417750784F09A8129
:1003C00028E532E0291B310997FD3395220F331FB1
:1003D000220F331FAB01261737070CF4A901425037
:1003E0005109440F551F2FB7F89490E0FC01EE0F10
:1003F000FF1F8E0F9F1FFC01EE5BFD4F5283418359
:100400002FBFDF91CF91FF90EF90DF90CF900895B5
:1004100090E0FC013197E231F10508F04EC08827E9
:10042000EE58FF4F8F4F0C94610E809180008F77B4
:1004300003C0809180008F7D80938000089580911B
:100440008000877FF9CF84B58F7702C084B58F7D18
:1004500084BD08958091B0008F7703C08091B00073
:100460008F7D8093B0000895809190008F7707C0B2
:10047000809190008F7D03C080919000877F809352
:10048000900008958091A0008F7707C08091A00010
:100490008F7D03C08091A000877F8093A000089586
:1004A000809120018F7707C0809120018F7D03C04C
:1004B00080912001877F8093200108951F93CF931F
:1004C000DF93282F30E0F901EA5BFD4F8491F901B9
:1004D000E050FE4FD491F901E654FE4FC491CC2375
:1004E000C9F0162F81110E940802EC2FF0E0EE0FE8
:1004F000FF1FE056FE4FA591B4918FB7F8941111EC
:1005000005C09C91ED2FE095E92302C0EC91ED2B05
:10051000EC938FBFDF91CF911F910895CF92DF921F
:10052000EF92FF920F931F93CF93DF936C018B0198
:100530007A01EC01C25CDD4F888187FF04C0FB01BA
:100540001182108224C08CE08C9D90018D9D300D15
:1005500011248881A901480F511D87FD5A9580916A
:100560003D0290E04817590794F48881A901480F8B
:10057000511D87FD5A95CA01FA01EE0FFF1F8E0F1C
:100580009F1FFC01EE5BFD4F808186FD19C08881B5
:100590008F5F88838CE08C9D90018D9D300D1124A0
:1005A0008881A901480F511D87FD5A9580913D0210
:1005B00090E048175907BCF488818C3044F113C08F
:1005C0008881280F311D87FD3A95F901EE0FFF1F35
:1005D0002E0F3F1FF901EE5BFD4F808160E08F73AE
:1005E0000E945E02D4CFF80180819181049680340C
:1005F0009C4918F480E49CE904C0F8018081918151
:100600000496F701918380838FEF888345C0F801BA
:10061000408151818881B901680F711D87FD7A95EC
:10062000CB01FB01EE0FFF1F8E0F9F1FFC01EE5B46
:10063000FD4F81819281840F951FF7019183808303
:100640008881A901480F511D87FD5A95CA01FA01F9
:10065000EE0FFF1F8E0F9F1FFC01EE5BFD4F808191
:1006600086FF1AC08881280F311D87FD3A95F90150
:10067000EE0FFF1F2E0F3F1FF901EE5BFD4F808134
:1006800061E08F73DF91CF911F910F91FF90EF90F9
:10069000DF90CF900C945E02DF91CF911F910F916C
:1006A000FF90EF90DF90CF900895CF93DF9390E08D
:1006B000FC01E050FE4F2491FC01E654FE4F849172
:1006C000882361F190E0880F991FFC01EA57FE4FE3
:1006D000C591D491FC01E056FE4FA591B4916111F2
:1006E00009C09FB7F8948881209582238883EC9174
:1006F0002E230BC0623061F49FB7F8943881822FAB
:10070000809583238883EC912E2B2C939FBF06C06A
:100710008FB7F894E8812E2B28838FBFDF91CF917C
:100720000895863308F0865390917B00282F287017
:10073000977F922B90937B008770806480937C00DE
:1007400080917A00806480937A0080917A0086FD9F
:10075000FCCF809178002091790090E0922B089551
:100760003FB7F8948091390290913A02A0913B02F0
:10077000B0913C0226B5A89B05C02F3F19F0019609
:10078000A11DB11D3FBFBA2FA92F982F8827820F17
:10079000911DA11DB11DBC01CD0142E0660F771F67
:1007A000881F991F4A95D1F70895CF92DF92EF9253
:1007B000FF920F931F93CF93DF936C017A018B010C
:1007C000C0E0D0E0CE15DF0589F0D8016D918D0134
:1007D000D601ED91FC910190F081E02DC6011995B3
:1007E000892B11F47E0102C02196ECCFC701DF9165
:1007F000CF911F910F91FF90EF90DF90CF900895D0
:10080000089580E090E00895FC01538D448D252FDC
:1008100030E0842F90E0821B930B541710F0CF969A
:10082000089501970895FC01918D828D981761F0CC
:10083000828DDF01A80FB11D5D968C91928D9F5F17
:100840009F73928F90E008958FEF9FEF0895FC01C2
:10085000918D828D981731F0828DE80FF11D858D75
:1008600090E008958FEF9FEF0895FC01918D228D08
:10087000892F90E0805C9F4F821B91098F7399278D
:10088000089582ED92E00E94350421E0892B09F45D
:1008900020E0822F0895FC01848DDF01A80FB11D97
:1008A000A35ABF4F2C91848D90E001968F739927A6
:1008B000848FA689B7892C93A089B1898C91806493
:1008C0008C93938D848D981306C00288F389E02D54
:1008D00080818F7D80830895EF92FF920F931F9305
:1008E000CF93DF93EC0181E0888F9B8D8C8D9813E3
:1008F00005C0E889F989808185FD24C0F62E0B8D1D
:1009000010E00F5F1F4F0F731127E02E8C8DE81240
:100910000CC00FB607FCFACFE889F989808185FF02
:10092000F5CFCE010E944B04F1CF8B8DFE01E80F75
:10093000F11DE35AFF4FF0820B8FEA89FB8980811A
:10094000806207C0EE89FF896083E889F989808128
:100950008064808381E090E0DF91CF911F910F91BF
:10096000FF90EF900895CF93DF93EC01888D88235B
:10097000C9F0EA89FB89808185FD05C0A889B9890C
:100980008C9186FD0FC00FB607FCF5CF808185FFE7
:10099000F2CFA889B9898C9185FFEDCFCE010E9455
:1009A0004B04E7CFDF91CF91089580E090E0892B51
:1009B00021F00E944104811125C080E090E0892B44
:1009C00041F080E090E0892B21F00E94000081112D
:1009D0001CC080E090E0892B41F080E090E0892B02
:1009E00021F00E940000811113C080E090E0892B6B
:1009F000A1F080E090E0892B81F00E94000081113D
:100A00000AC008950E940000D8CF0E940000E1CFE4
:100A10000E940000EACF0C94000008950F931F93EA
:100A2000CF93DF938C01EB01FC0180810E94910345
:100A300099838883F80182810E9491039B838A8332
:100A4000F801248135813327F901EA5BFD4F849158
:100A5000F901E050FE4F0491F901E654FE4F149164
:100A60001123A1F081110E940802E12FF0E0EE0FA6
:100A7000FF1FE459FE4FA591B491EC91E02331E0C2
:100A800020E009F430E0832F922F02C080E090E054
:100A9000F1E08F2781708C83DF91CF911F910F91AF
:100AA0000895DF92EF92FF920F931F93CF93DF93FE
:100AB000EC01D62E8A017901E0913D02E03390F4F9
:100AC00081E08E0F80933D02EA83F0E0CF01880F32
:100AD000991FE80FF91FEE5BFD4F88EB9BE09283B7
:100AE000818302C08FEF8A838A81803308F050C0EF
:100AF00061E08D2D0E9455038A81E82FF0E09F016F
:100B0000220F331FE20FF31FEE5BFD4F9D2D9F73EE
:100B10002081207CD22ED92AD0821B821C826CE0BC
:100B20000E94550E9CE0899FB001112440E050E0E6
:100B30009A01260F371FF901EE0FFF1F2E0F3F1FDF
:100B4000F901EE5BFD4F908196FD16C04F5F5F4F40
:100B50004C30510569F7813039F51092800082E000
:100B6000809381001092850010928400B19A809148
:100B70006F00826080936F00EA81F0E0CF01880F00
:100B8000991FE80FF91FEE5BFD4F80818064808321
:100B90001E830D83F886EF82DF91CF911F910F9115
:100BA000FF90EF90DF900895823061F410929000F2
:100BB00080939100109295001092940088BB8093CE
:100BC0007100DACF833069F41092A00082E0809344
:100BD000A1001092A5001092A40089BB809372001E
:100BE000CBCF8111C9CF1092200182E080932101E7
:100BF00010922501109224018ABB80937300BCCF10
:100C0000009769F0FC0101900020E9F73197AF01EE
:100C1000481B590BBC0182ED92E00C94D50380E097
:100C200090E008958F929F92AF92BF920F931F937F
:100C3000CF93DF93CDB7DEB7A1970FB6F894DEBFA1
:100C40000FBECDBF19A2423008F44AE08E010F5DFD
:100C50001F4F842E912CA12CB12CA50194010E9430
:100C6000240EE62FB901CA0101501109EA3014F42B
:100C7000E05D01C0E95CD801EC93232B242B252BEC
:100C800061F7C8010E940006A1960FB6F894DEBF76
:100C90000FBECDBFDF91CF911F910F91BF90AF904D
:100CA0009F908F9008954F925F926F927F928F9254
:100CB0009F92AF92BF92CF92DF92EF92FF926B0121
:100CC0007C019B01AC010E943510882319F088E15A
:100CD00092E01AC046015701E894B7F82FEF3FEFB2
:100CE0004FE75FE7C501B4010E943510811110C0C4
:100CF0002FEF3FEF4FE75FE7C501B4010E94D60E2B
:100D0000181634F48CE192E00E9400067C017FC04A
:100D10002FEF3FEF4FE75FE4C701B6010E94C30F1B
:100D200018161CF480E292E0EFCF2FEF3FEF4FE771
:100D30005FECC701B6010E94D60E87FDF3CF20E01D
:100D400030E0A901C701B6010E94D60E87FF09C095
:100D50008DE20E947A015C01F7FAF094F7F8F094C2
:100D600002C0A12CB12C2AE037ED43EA5BE3C701B6
:100D7000B6010E946A0E2B013C010E94E20E6B013B
:100D80007C010E94110F9B01AC01C301B2010E94C2
:100D9000690E2B013C014AE0C701B6010E94120610
:100DA0007C01EA0CFB1C8EE20E947A01E80EF91E1F
:100DB00020E030E040E251E4C301B2010E94C80FDC
:100DC0002B013C010E94E20E4B01A12CB12C4AE008
:100DD000C501B4010E941206E80EF91EC501B40156
:100DE0000E94110F9B01AC01C301B2010E94690E68
:100DF00020E030E040E251E40E94C80F0E94E20E81
:100E000080E090E04AE00E941206E80EF91E84E2BB
:100E100092E00E9400068E0D9F1DFF90EF90DF90E4
:100E2000CF90BF90AF909F908F907F906F905F908A
:100E30004F900895CF92DF92EF92FF920F931F93FE
:100E4000CF93DF938C01EB016B01770FEE08FF0866
:100E5000F7FE0CC08DE20E947A0166277727CB014E
:100E60006C197D098E099F094AE003C04AE0C70159
:100E7000B6010E94120684E292E00E940006F80188
:100E800065817681C8010296C617D7073CF0F80144
:100E9000678170856C177D070CF0BE01DF91CF91E3
:100EA0001F910F91FF90EF90DF90CF900C948501F0
:100EB000FC016581768127813085261B370B37FF42
:100EC00002C02F5F3F4F35952795620F731F0C941B
:100ED0001A07CB01FB01258136812417350744F41D
:100EE00027813085421753071CF4BA010C941A0766
:100EF0000895CF92DF92EF92FF92CF93DF936C0130
:100F0000990FEE08FF08F7FE12C08DE20E947A01E9
:100F1000EC0166277727CB016C197D098E099F09A3
:100F20004AE00E9412067C01EC0EFD1E06C04AE05B
:100F3000C701B6010E9412067C0184E292E00E9481
:100F400000068E0D9F1DDF91CF91FF90EF90DF90F7
:100F5000CF9008950E9467111F920F920FB60F92C3
:100F600011240BB60F922F933F934F935F936F9380
:100F70007F938F939F93AF93BF93EF93FF9348E239
:100F800051E064E271E080E090E00E948E02FF9107
:100F9000EF91BF91AF919F918F917F916F915F91F1
:100FA0004F913F912F910F900BBE0F900FBE0F905E
:100FB0001F9018951F920F920FB60F9211240BB627
:100FC0000F922F933F934F935F936F937F938F93E2
:100FD0009F93AF93BF93EF93FF9348EA50E064EA87
:100FE00070E083E090E00E948E02FF91EF91BF914C
:100FF000AF919F918F917F916F915F914F913F91B1
:101000002F910F900BBE0F900FBE0F901F90189551
:101010001F920F920FB60F9211240BB60F922F93BF
:101020003F934F935F936F937F938F939F93AF9370
:10103000BF93EF93FF9348E950E064E970E082E0EA
:1010400090E00E948E02FF91EF91BF91AF919F912E
:101050008F917F916F915F914F913F912F910F9061
:101060000BBE0F900FBE0F901F9018951F920F92FE
:101070000FB60F9211240BB60F922F933F934F93FD
:101080005F936F937F938F939F93AF93BF93EF93F0
:10109000FF9348E850E064E870E081E090E00E944F
:1010A0008E02FF91EF91BF91AF919F918F917F91B0
:1010B0006F915F914F913F912F910F900BBE0F90C9
:1010C0000FBE0F901F9018951F920F920FB60F92A0
:1010D00011242F933F938F939F93AF93BF9380914E
:1010E000350290913602A0913702B09138023091CA
:1010F000340223E0230F2D3720F40196A11DB11DEA
:1011000005C026E8230F0296A11DB11D20933402CD
:101110008093350290933602A0933702B093380241
:101120008091390290913A02A0913B02B0913C0229
:101130000196A11DB11D8093390290933A02A093AC
:101140003B02B0933C02BF91AF919F918F913F9131
:101150002F910F900FBE0F901F9018951F920F9216
:101160000FB60F9211240BB60F922F933F934F930C
:101170005F936F937F938F939F93AF93BF93EF93FF
:10118000FF9382ED92E00E944B04FF91EF91BF919B
:10119000AF919F918F917F916F915F914F913F910F
:1011A0002F910F900BBE0F900FBE0F901F901895B0
:1011B0001F920F920FB60F9211240BB60F922F931E
:1011C0008F939F93EF93FF93E091E202F091E302FC
:1011D0008081E091E802F091E90282FD12C09081E5
:1011E0008091EB028F5F8F732091EC02821751F098
:1011F000E091EB02F0E0EE52FD4F958F8093EB0211
:1012000001C08081FF91EF919F918F912F910F905D
:101210000BBE0F900FBE0F901F901895CF93DF93CA
:10122000CDB7DEB72E970FB6F894DEBF0FBECDBF99
:10123000789484B5826084BD84B5816084BD85B5B1
:10124000826085BD85B5816085BD80916E008160BD
:1012500080936E0010928100809181008260809363
:101260008100809181008160809381008091800065
:101270008160809380008091B10084608093B10090
:101280008091B00081608093B00080919100826075
:101290008093910080919100816080939100809172
:1012A00090008160809390008091A1008260809383
:1012B000A1008091A10081608093A1008091A00095
:1012C00081608093A0008091210182608093210140
:1012D00080912101816080932101809120018160B2
:1012E0008093200180917A00846080937A008091BD
:1012F0007A00826080937A0080917A008160809386
:101300007A0080917A00806880937A001092C10000
:10131000E091E202F091E30282E08083E091DE025C
:10132000F091DF021082E091E002F091E1028FEC97
:1013300080831092EA02E091E602F091E70286E0F3
:101340008083E091E402F091E502808180618083F6
:10135000E091E402F091E502808188608083E09171
:10136000E402F091E502808180688083E091E402EC
:10137000F091E50280818F7D80838EE090E00E9475
:101380003A103C0189E090E00E943A108C0120EA7A
:1013900030E045E550E060E270E00E945105D30185
:1013A0000D931C9389E090E00E943A108C0124EB8D
:1013B00030E040E050E062E270E00E945105F3014D
:1013C0001383028389E090E00E943A108C012FEA97
:1013D00030E043E250E064E270E00E945105D30146
:1013E00015961C930E93149789E090E00E943A1092
:1013F0008C012AEA30E04AE050E066E270E00E94A8
:101400005105F3011783068389E090E00E943A10AA
:101410008C0121E930E04BE450E068E270E00E948A
:101420005105D30119961C930E93189786E090E00E
:101430000E943A108C018FE390E0F8019183808341
:1014400081E490E0938382838BE290E095838483B0
:1014500062E00E945503D3011B961C930E931A97CA
:1014600086E090E00E943A108C0183E490E0F8015D
:101470009183808385E490E0938382838DE290E082
:101480009583848362E00E945503D3011D961C93CB
:101490000E931C97709231026092300280E190E0CE
:1014A0000E943A10FC018DEC882E8CEC982E8CE476
:1014B000A82E8DE3B82E80829182A282B38284828C
:1014C0009582A682B7829AE0C92E97EDD92E93EA2B
:1014D000E92E9DE3F92EC086D186E286F386C48686
:1014E000D586E686F786F0932F02E0932E0282E3FC
:1014F00090E00E943A10FC0182E090E091AB80AB5A
:10150000828A938AA48AB58A868A978AA08EB18EA7
:10151000C28ED38EE48EF58EC68ED78EE0A2F1A257
:10152000D3018D919C91119797A386A312968D91CB
:101530009C91139791A780A714968D919C911597D4
:1015400093A782A716968D919C91179795A784A72C
:1015500018968D919C91199797A786A71A968D91A9
:101560009C911B9793A382A315A304A3F09333022A
:10157000E0933202C501B4010E945306E0913202A9
:10158000F091330266897789808D918D0E94530690
:10159000E0913202F0913302628D738D848D958DCE
:1015A0000E945306E0913202F0913302668D778DEE
:1015B00080A191A10E945306E0913002F091310286
:1015C000808191810E945807E0913002F0913102B0
:1015D000828193810E945807E0913002F09131029C
:1015E000848195810E945807E0913002F091310288
:1015F000868197810E945807E0913002F091310274
:10160000808591850E94580728E8222E312C87E298
:1016100092E00E94000684E292E00E940006E091BF
:101620003202F0913302FE87ED87BF0182A193A1C0
:101630000E940E056D857E856B5F7F4FAD85BE85F3
:1016400094968D919C9195970E940E05AD85BE85CF
:101650009C96ED91FC919D97C780D0840D2C000C39
:10166000EE08FF088D919C9125813681A901330FE9
:10167000660B770B9A01AB012C193D094E095F09E6
:10168000DC010E941C0E20E034E040E050E00E94AB
:10169000F20DC20ED31EE41EF51EED85FE85D1822D
:1016A000C08206A117A1D80115968D909C9016971F
:1016B000092C000CAA08BB08A281B381F80127817C
:1016C0003085A901330F660B770B9A01AB012819FE
:1016D00039094A095B090E941C0E20E034E040E011
:1016E00050E00E94F20DDA01C901880D991DAA1D72
:1016F000BB1D89839A83AB83BC83AD85BE8513965E
:101700009C938E9312979896ED91FC919997858072
:101710009680092C000CAA08BB0815968D919C9107
:10172000169727813085A901330F660B770B9A0135
:10173000AB01281939094A095B09DC010E941C0E1A
:1017400020E034E040E050E00E94F20DDA01C901EF
:10175000880D991DAA1DBB1D8D839E83AF83B887FD
:10176000AD85BE8516969C938E9315979A96ED91AE
:10177000FC919B9785809680092C000CAA08BB08D9
:1017800017968D919C91189727813085A901330F69
:10179000660B770B9A01AB01281939094A095B09D5
:1017A000DC010E941C0E20E034E040E050E00E948A
:1017B000F20DDA01C901880D991DAA1DBB1D89878B
:1017C0009A87AB87BC87AD85BE8518969C938E9310
:1017D000179752968D909D90AD90BC9055971A9604
:1017E0006D917C911B97072E000C880B990B0E9422
:1017F000130F2B013C01A501940160E070E080E82B
:101800009FE30E94690E9B01AC01C301B2010E94DB
:10181000C80F2B013C01B601DD0C880B990B0E940F
:10182000130FA50194010E94C80F9B01AC01C301D5
:10183000B2010E946A0E0E94DB0EED85FE85738761
:101840006287C688D788E08CF18C64857585072E01
:10185000000C880B990B0E94130F4B015C01A70130
:10186000960160E070E080E89FE30E94690E9B01B2
:10187000AC01C501B4010E94C80F4B015C01298174
:101880003A81B901330F880B990B0E94130FA701FE
:1018900096010E94C80F9B01AC01C501B4010E94D2
:1018A0006A0E0E94DB0E6B017C01AD85BE851D9624
:1018B0007C936E931C975A968D909D90AD90BC90A2
:1018C0005D971E966D917C911F97072E000C880BDB
:1018D000990B0E94130F2B013C01A501940160E0BC
:1018E00070E080E89FE30E94690E9B01AC01C30198
:1018F000B2010E94C80F2B013C01ED81FE81BF01A6
:10190000FF0F880B990B0E94130FA50194010E94F1
:10191000C80F9B01AC01C301B2010E946A0E0E9474
:10192000DB0EAD85BE851F967C936E931E975E96EB
:101930008D909D90AD90BC90919750966D917C91BB
:101940005197072E000C880B990B0E94130F2B0147
:101950003C01A501940160E070E080E89FE30E94F3
:10196000690E9B01AC01C301B2010E94C80F2B019B
:101970003C01E985FA85BF01FF0F880B990B0E9496
:10198000130FA50194010E94C80F9B01AC01C30174
:10199000B2010E946A0E0E94DB0EAD85BE85519693
:1019A0007C936E935097A601B801CD010E94690700
:1019B000ED85FE854685578560A571A5CF010E94FE
:1019C0006907AD85BE8550964D915C9151979A9669
:1019D0006D917C919B97CD010E946907ED85FE85F5
:1019E0004285538564A575A5CF010E946907AD8521
:1019F000BE859E960D911C919F97F801848178E594
:101A0000C72E72E0D72EC81AD10887FDD394CC0C0C
:101A1000DD1CCC0CDD1C0D2C000CEE08FF088381B6
:101A20004101881A910887FD9394880C991C880CB1
:101A3000991C092C000CAA08BB0882818F3FC1F0B9
:101A400090E09C01220F331F820F931FFC01EE5B7D
:101A5000FD4F2181328153E0220F331F5A95E1F768
:101A600064E0369527956A95E1F72E5F3F4F02C0F7
:101A700020E030E02F5F3F4FC901330FAA0BBB0BB3
:101A80009C01AD01281939094A095B09A4EBB0E0B2
:101A90000E94110EA7019601281939094A095B090C
:101AA0000E94F20DB901AD85BE8514968C911497F4
:101AB000882361F0F801878190852817390734F46D
:101AC000D0966D917C91D197620F731FAD85BE85C5
:101AD00019968C911997882361F0F8018581968178
:101AE0008617970734F4D0968D919C91D197681BF7
:101AF000790BC8010E941A07E0913202F09133027B
:101B0000828593850E947907E0913202F091330239
:101B1000848595850E947907E0913202F091330225
:101B2000868597850E947907E0913202F091330211
:101B3000808991890E9479070E94B0034B015C0162
:101B40008EE1C82ED12CE12CF12C0E94B003DC01D7
:101B5000CB0188199909AA09BB09883E9340A105C0
:101B6000B10558F0F1E0CF1AD108E108F10828EEEC
:101B7000820E23E0921EA11CB11CC114D104E10409
:101B8000F10419F70E94D50442CDE2EDF2E0138290
:101B9000128288EE93E0A0E0B0E084839583A68370
:101BA000B7838AE092E09183808385EC90E095870B
:101BB000848784EC90E09787868780EC90E0918B17
:101BC000808B81EC90E0938B828B82EC90E0958B04
:101BD000848B86EC90E0978B868B118E128E138E01
:101BE000148E0895052E97FB1EF400940E94090E92
:101BF00057FD07D00E94240E07FC03D04EF40C942E
:101C0000090E50954095309521953F4F4F4F5F4FAE
:101C1000089590958095709561957F4F8F4F9F4F58
:101C200008950E94460EA59F900DB49F900DA49F0D
:101C3000800D911D11240895B7FF0C94110E0E9480
:101C4000110E821B930B0895A1E21A2EAA1BBB1B37
:101C5000FD010DC0AA1FBB1FEE1FFF1FA217B30778
:101C6000E407F50720F0A21BB30BE40BF50B661F8E
:101C7000771F881F991F1A9469F760957095809552
:101C800090959B01AC01BD01CF010895A29FB001C9
:101C9000B39FC001A39F700D811D1124911DB29FA0
:101CA000700D811D1124911D0895991B79E004C0C8
:101CB000991F961708F0961B881F7A95C9F780958B
:101CC0000895EE0FFF1F881F8BBF0790F691E02D40
:101CD00019945058BB27AA270E94810E0C94890F93
:101CE0000E947B0F38F00E94820F20F039F49F3F52
:101CF00019F426F40C94780F0EF4E095E7FB0C949D
:101D0000720FE92F0E949A0F58F3BA1762077307F0
:101D10008407950720F079F4A6F50C94BC0F0EF417
:101D2000E0950B2EBA2FA02D0B01B90190010C01EB
:101D3000CA01A0011124FF27591B99F0593F50F403
:101D4000503E68F11A16F040A22F232F342F44275B
:101D5000585FF3CF469537952795A795F040539553
:101D6000C9F77EF41F16BA0B620B730B840BBAF023
:101D70009150A1F0FF0FBB1F661F771F881FC2F78E
:101D80000EC0BA0F621F731F841F48F487957795A2
:101D90006795B795F7959E3F08F0B0CF9395880F5C
:101DA00008F09927EE0F9795879508950E944E0F9A
:101DB00008F481E008950E94E20E6894B1110C9439
:101DC000BD0F08950E94A20F88F09F5798F0B92F79
:101DD0009927B751B0F0E1F0660F771F881F991F60
:101DE0001AF0BA95C9F714C0B13091F00E94BC0F37
:101DF000B1E008950C94BC0F672F782F8827B85F47
:101E000039F0B93FCCF3869577956795B395D9F7B7
:101E10003EF490958095709561957F4F8F4F9F4FC1
:101E20000895E89409C097FB3EF4909580957095CD
:101E300061957F4F8F4F9F4F9923A9F0F92F96E916
:101E4000BB279395F695879577956795B795F1118B
:101E5000F8CFFAF4BB0F11F460FF1BC06F5F7F4F28
:101E60008F4F9F4F16C0882311F096E911C077233A
:101E700021F09EE8872F762F05C0662371F096E843
:101E8000862F70E060E02AF09A95660F771F881F12
:101E9000DAF7880F9695879597F90895990F0008B6
:101EA000550FAA0BE0E8FEEF16161706E807F9072C
:101EB000C0F012161306E407F50798F0621B730BC7
:101EC000840B950B39F40A2661F0232B242B252B48
:101ED00021F408950A2609F4A140A6958FEF811DEB
:101EE000811D089597F99F6780E870E060E008958C
:101EF0009FEF80EC089500240A9416161706180622
:101F00000906089500240A941216130614060506FD
:101F10000895092E0394000C11F4882352F0BB0F8E
:101F200040F4BF2B11F460FF04C06F5F7F4F8F4FF1
:101F30009F4F089557FD9058440F551F59F05F3F2C
:101F400071F04795880F97FB991F61F09F3F79F0DB
:101F500087950895121613061406551FF2CF46955D
:101F6000F1DF08C0161617061806991FF1CF8695DF
:101F70007105610508940895E894BB2766277727C3
:101F8000CB0197F908950E944E0F08F48FEF089542
:101F90000E94DB0F0C94890F0E947B0F38F00E9487
:101FA000820F20F0952311F00C94720F0C94780F8F
:101FB00011240C94BD0F0E949A0F70F3959FC1F3EA
:101FC000950F50E0551F629FF001729FBB27F00DE7
:101FD000B11D639FAA27F00DB11DAA1F649F66273C
:101FE000B00DA11D661F829F2227B00DA11D621F8B
:101FF000739FB00DA11D621F839FA00D611D221F45
:10200000749F3327A00D611D231F849F600D211D28
:10201000822F762F6A2F11249F5750409AF0F1F0AB
:1020200088234AF0EE0FFF1FBB1F661F771F881F14
:1020300091505040A9F79E3F510580F00C94720FCB
:102040000C94BD0F5F3FE4F3983ED4F386957795EB
:102050006795B795F795E7959F5FC1F7FE2B880FBA
:10206000911D9695879597F908950E944E0F880BBC
:10207000990B0895CF93DF938230910510F482E09D
:1020800090E0E0917103F091720320E030E0C0E055
:10209000D0E0309711F14081518148175907C0F0C5
:1020A0004817590761F482819381209719F09B8327
:1020B0008A832BC0909372038093710326C02115ED
:1020C000310519F04217530718F49A01BE01DF01D8
:1020D000EF010280F381E02DDCCF2115310509F1FC
:1020E000281B390B2430310590F412968D919C9168
:1020F00013976115710521F0FB019383828304C05E
:102100009093720380937103FD01329644C0FD01E8
:10211000E20FF31F81939193225031092D933C9349
:102120003AC020916F0330917003232B41F420912A
:102130000202309103023093700320936F032091C9
:102140000002309101022115310541F42DB73EB74F
:102150004091040250910502241B350BE0916F035E
:10216000F0917003E217F307A0F42E1B3F0B281722
:10217000390778F0AC014E5F5F4F2417350748F000
:102180004E0F5F1F5093700340936F0381939193A1
:1021900002C0E0E0F0E0CF01DF91CF9108950F930E
:1021A0001F93CF93DF93009709F48CC0FC01329703
:1021B00013821282009171031091720301151105AF
:1021C00081F420813181820F931F20916F03309120
:1021D00070032817390779F5F0937003E0936F03C4
:1021E00071C0D80140E050E0AE17BF0750F412961E
:1021F0002D913C911397AD012115310509F1D901BC
:10220000F3CF9D01DA013383228360817181860FD0
:10221000971F8217930769F4EC0128813981260FF3
:10222000371F2E5F3F4F318320838A819B819383A9
:102230008283452B29F4F0937203E093710342C02B
:102240001396FC93EE931297ED01499159919E01DB
:10225000240F351FE217F30771F480819181840FF9
:10226000951F029611969C938E938281938113966B
:102270009C938E931297E0E0F0E0D80112968D9136
:102280009C911397009719F0F8018C01F6CF8D916E
:102290009C9198012E5F3F4F820F931F20916F03F7
:1022A000309170032817390769F4309729F4109298
:1022B00072031092710302C0138212821093700392
:1022C00000936F03DF91CF911F910F91089581E0EB
:0C22D00090E0F8940C946C11F894FFCF8F
:1022DC00000073032000000000006C04D50304040C
:1022EC00B3043504130427046E616E00696E660036
:0E22FC006F7666000D0A006C6F6F7021000097
:00000001FF
